:0E0D3C0000007F057E347DC3DDFEDEFCDFFAA5
:010D4A002286
:100CAC00EF1FAC0670011E4C600B007D027CC7DC94
:050CBC00FEDDFC80EBF1
:010CC1002210
:100CEE00EF64014E700575A0FE80FE75A0FE120D1C
:050CFE003C75A0FF227F
:100C3700EF4E700C75A0FE120D3C75A0FF020D3C27
:0E0C470075A0FE120D3C75A0FF120D3C80F250
:100B620075A0FE120D3C75A0FD120D3C75A0FB1286
:100B72000D3C75A0F7120D3C75A0EF120D3C75A04F
:100B8200DF120D3C75A0BF120D3C75A07F120D3C0B
:020B920080CE13
:100B9400E4F531F532AF327401A807088002C3339B
:100BA400D8FCF4F5A07FE87E03120CAC0532E532E4
:100BB40070020531C39408E5316480948040D68086
:010BC400CF61
:090D790075280075290A020A42DE
:0B0D5A0020B004C2A080F9D2A080F5F8
:100D030020B0FD7F147E00120CAC20B0F330B0FD98
:040D1300B2A080EC1E
:100C9000E4F53520B0FD7F147E00120CAC20B0F3DB
:0C0CA00030B0FD0535E535F4F5A080E727
:10098600E4F53675A0FE20B02B7F147E00120CAC69
:1009960030B0FD7F147E00120CAC0536E536B40887
:1009A60003E4F536AF367401A807088002C333D8CE
:1009B600FCF4F5A020B1CF7F147E00120CAC30B150
:1009C600FD7F147E00120CACE53670057536078087
:1009D600021536AF367401A807088002C333D8FC67
:0509E600F4F5A080A162
:060D4B00C2A58F80D2A7B3
:080D51007F027EEFDEFEDFFCF5
:010D59002277
:0A0D6500C2A6120D4BC2A7020D51E9
:100C5500CFCDCFCECCCE12083F7C007D0A12083F07
:040C6500ED2430FF4B
:0A0C6900D2A6120D4BC2A7020D51D6
:100CC200AE07BE0104ED148006BE0209ED243F44C6
:060CD20080FF120D6522F7
:100D17007F38120D657F0C120D657F06120D657FFA
:040D270001020D6553
:0A0D6F00AC03120CC2AF04020C69C1
:060BF5008B2A8A2B892CDB
:100BFB00120CC2E4FDAB2AAA2BA92C8D82758300A3
:0C0C0B00120800FF6006120C690D80E961
:010C170022BA
:0C0B2F007F0AEA24FFFDE434FFFC7E0096
:080B3B008E2D8F2E8C2F8D30C2
:100B43007F017E00E4FBEBC39530E52F6480F874EE
:0E0B53008098500AAC2DAD2E12082D0B80E8B4
:010B61002271
:040C73008A1B8B1C31
:100C7700120CC2AA1DEAD39400400D120B2FAC1B15
:080C8700AD1C120C551A80EDA2
:010C8F002242
:100A8400120CC2C3EA64809480400B7F2B120C6961
:100A94008A178B18800E7F2D120C69C3E49BF518FE
:100AA400E49AF517AA16EAD39400400D120B2FAC62
:090AB40017AD18120C551A80ED63
:010ABD002216
:040ABE008A208B21DE
:100AC200120CC2AA22EAD3940040297F10120B31E1
:100AD200AC20AD21CFCDCFCECCCE12083FEF540FFC
:100AE200FEC3940AEE5004243080022437FF120C15
:040AF200691A80D12C
:010AF60022DD
:040AF7008A258B269B
:100AFB00120CC2AA27EAD394004028EA24FFFDE493
:100B0B0034FFFC7F027E00120B3BAC25AD26CFCD14
:100B1B00CFCECCCE12083FEF54012430FF120C691C
:030B2B001A80D25B
:010B2E0022A4
:100C180054656C3A4E6975205869616F646F6E67E8
:0F0C28000031383520303038352032323430004A
:100BC500120D177BFF7A0C7918E4FD7F01120BF5E6
:100BD5007BFF7A0C79297D027F02120BF57FF47E6B
:100BE50001120CAC120D177F207E03120CAC80D3C2
:040D2B00023303E8A4
:090D8200E4F5807F05FE020CACD3
:090D8B0075803F120CAC020D82D0
:090D9400758006120CAC020D8200
:090D9D0075805B120CAC020D82A2
:090DA60075804F120CAC020D82A5
:090DAF00758066120CAC020D8285
:090DB80075806D120CAC020D8275
:090DC10075807D120CAC020D825C
:090DCA00758007120CAC020D82C9
:090DD30075807F120CAC020D8248
:090DDC0075806F120CAC020D824F
:1009EB00D2A4C2A3D2A275807DD2A4C2A3C2A2AF4D
:1009FB0034AE33120D8BAF34AE33120D94AF34AE25
:100A0B0033120D9DAF34AE33120DA6AF34AE33128D
:100A1B000DAFAF34AE33120DB8AF34AE33120DC1D0
:100A2B00AF34AE33120DCAAF34AE33120DD3AF3475
:070A3B00AE33120DDC80B2A6
:0C0D2F000A083F065B4F666D7D077F6F72
:10092000EE705BEF14B40800505490093875F00372
:10093000A4C58325F0C58373020950020954020936
:100940005802095C0209600209680209700209780C
:10095000D2A4800ED2A48012D2A48016D2A4801A6F
:10096000C2A4D2A3D2A28016C2A4D2A3C2A2800ED5
:10097000C2A4C2A3D2A28006C2A4C2A3C2A2740807
:060980002DF8E6F58022CF
:100CD80070726573732020312D31007072657373E3
:060CE800204E4F4E4500B6
:100A4200120D17C29720932480032093097F147EEE
:100A520000120CAC80F47BFF7A0C79D8E4FD7F01A4
:100A6200120BF57FD07E07120CAC80D97BFF7A0C7B
:100A720079E3E4FD7F01120BF57F147E00120CACCA
:020A820080C32F
:030000000208945F
:0C089400787FE4F6D8FD7581360208DBA1
:10080000BB010CE58229F582E5833AF583E02250AD
:1008100006E92582F8E622BBFE06E92582F8E222F7
:0D082000E58229F582E5833AF583E4932211
:10082D00EF8DF0A4A8F0CF8CF0A428CE8DF0A42EDF
:02083D00FE2299
:10083F00BC000BBE0029EF8DF084FFADF022E4CC9D
:10084F00F875F008EF2FFFEE33FEEC33FCEE9DEC66
:10085F00984005FCEE9DFE0FD5F0E9E4CEFD22EDAC
:10086F00F8F5F0EE8420D21CFEADF075F008EF2FF6
:10087F00FFED33FD4007985006D5F0F222C398FDE7
:05088F000FD5F0EA2284
:1008A000020D79E493A3F8E493A34003F68001F2E8
:1008B00008DFF48029E493A3F85407240CC8C33359
:1008C000C4540F4420C8834004F456800146F6DF28
:1008D000E4800B0102040810204080900D2BE47E80
:1008E000019360BCA3FF543F30E509541FFEE4931D
:1008F000A360010ECF54C025E060A840B8E493A3E4
:10090000FAE493A3F8E493A3C8C582C8CAC583CA0E
:10091000F0A3C8C582C8CAC583CADFE9DEE780BEC6
:010D3B0000B7
:00000001FF
